{
	"data": {
		"bytecode": {
			"linkReferences": {},
			"object": "608060405234801561001057600080fd5b50610a0f806100206000396000f3fe608060405234801561001057600080fd5b50600436106100415760003560e01c806328795c62146100465780639bda304414610062578063db024f451461007e575b600080fd5b610060600480360381019061005b9190610414565b61009a565b005b61007c6004803603810190610077919061049f565b6100da565b005b61009860048036038101906100939190610389565b61011d565b005b7f8e2d55122a9e75582862787a3e1e2332368ae3e0e8aade6d57c828fc64cab4348383836040516100cd939291906106cc565b60405180910390a1505050565b7ff51d5af2af5b8bbd9abf91f887430ca874939abd553686542340515e5793c9948484848460405161010f9493929190610711565b60405180910390a150505050565b60008390508073ffffffffffffffffffffffffffffffffffffffff16635537ae5184846040518363ffffffff1660e01b815260040161015d929190610695565b600060405180830381600087803b15801561017757600080fd5b505af115801561018b573d6000803e3d6000fd5b5050505050505050565b60006101a86101a38461077b565b610756565b905080838252602082019050828560208602820111156101cb576101ca610986565b5b60005b8581101561021957813567ffffffffffffffff8111156101f1576101f0610981565b5b8086016101fe8982610346565b855260208501945060208401935050506001810190506101ce565b5050509392505050565b6000610236610231846107a7565b610756565b9050808382526020820190508285602086028201111561025957610258610986565b5b60005b85811015610289578161026f8882610374565b84526020840193506020830192505060018101905061025c565b5050509392505050565b60006102a66102a1846107d3565b610756565b9050828152602081018484840111156102c2576102c161098b565b5b6102cd8482856108df565b509392505050565b6000813590506102e4816109ab565b92915050565b600082601f8301126102ff576102fe610981565b5b813561030f848260208601610195565b91505092915050565b600082601f83011261032d5761032c610981565b5b813561033d848260208601610223565b91505092915050565b600082601f83011261035b5761035a610981565b5b813561036b848260208601610293565b91505092915050565b600081359050610383816109c2565b92915050565b6000806000606084860312156103a2576103a1610995565b5b60006103b0868287016102d5565b935050602084013567ffffffffffffffff8111156103d1576103d0610990565b5b6103dd86828701610346565b925050604084013567ffffffffffffffff8111156103fe576103fd610990565b5b61040a86828701610346565b9150509250925092565b60008060006060848603121561042d5761042c610995565b5b600061043b86828701610374565b935050602084013567ffffffffffffffff81111561045c5761045b610990565b5b61046886828701610318565b925050604084013567ffffffffffffffff81111561048957610488610990565b5b610495868287016102ea565b9150509250925092565b600080600080608085870312156104b9576104b8610995565b5b60006104c787828801610374565b94505060206104d887828801610374565b93505060406104e987828801610374565b92505060606104fa87828801610374565b91505092959194509250565b60006105128383610605565b905092915050565b60006105268383610677565b60208301905092915050565b600061053d82610824565b610547818561085f565b93508360208202850161055985610804565b8060005b8581101561059557848403895281516105768582610506565b945061058183610845565b925060208a0199505060018101905061055d565b50829750879550505050505092915050565b60006105b28261082f565b6105bc8185610870565b93506105c783610814565b8060005b838110156105f85781516105df888261051a565b97506105ea83610852565b9250506001810190506105cb565b5085935050505092915050565b60006106108261083a565b61061a8185610881565b935061062a8185602086016108ee565b6106338161099a565b840191505092915050565b60006106498261083a565b6106538185610892565b93506106638185602086016108ee565b61066c8161099a565b840191505092915050565b610680816108d5565b82525050565b61068f816108d5565b82525050565b600060408201905081810360008301526106af818561063e565b905081810360208301526106c3818461063e565b90509392505050565b60006060820190506106e16000830186610686565b81810360208301526106f381856105a7565b905081810360408301526107078184610532565b9050949350505050565b60006080820190506107266000830187610686565b6107336020830186610686565b6107406040830185610686565b61074d6060830184610686565b95945050505050565b6000610760610771565b905061076c8282610921565b919050565b6000604051905090565b600067ffffffffffffffff82111561079657610795610952565b5b602082029050602081019050919050565b600067ffffffffffffffff8211156107c2576107c1610952565b5b602082029050602081019050919050565b600067ffffffffffffffff8211156107ee576107ed610952565b5b6107f78261099a565b9050602081019050919050565b6000819050602082019050919050565b6000819050602082019050919050565b600081519050919050565b600081519050919050565b600081519050919050565b6000602082019050919050565b6000602082019050919050565b600082825260208201905092915050565b600082825260208201905092915050565b600082825260208201905092915050565b600082825260208201905092915050565b60006108ae826108b5565b9050919050565b600073ffffffffffffffffffffffffffffffffffffffff82169050919050565b6000819050919050565b82818337600083830152505050565b60005b8381101561090c5780820151818401526020810190506108f1565b8381111561091b576000848401525b50505050565b61092a8261099a565b810181811067ffffffffffffffff8211171561094957610948610952565b5b80604052505050565b7f4e487b7100000000000000000000000000000000000000000000000000000000600052604160045260246000fd5b600080fd5b600080fd5b600080fd5b600080fd5b600080fd5b6000601f19601f8301169050919050565b6109b4816108a3565b81146109bf57600080fd5b50565b6109cb816108d5565b81146109d657600080fd5b5056fea26469706673582212207e36d3bb1b42edbbdfc514e1ac732a28c2c95640e2ca4226397501568704b8e364736f6c63430008070033",
			"opcodes": "PUSH1 0x80 PUSH1 0x40 MSTORE CALLVALUE DUP1 ISZERO PUSH2 0x10 JUMPI PUSH1 0x0 DUP1 REVERT JUMPDEST POP PUSH2 0xA0F DUP1 PUSH2 0x20 PUSH1 0x0 CODECOPY PUSH1 0x0 RETURN INVALID PUSH1 0x80 PUSH1 0x40 MSTORE CALLVALUE DUP1 ISZERO PUSH2 0x10 JUMPI PUSH1 0x0 DUP1 REVERT JUMPDEST POP PUSH1 0x4 CALLDATASIZE LT PUSH2 0x41 JUMPI PUSH1 0x0 CALLDATALOAD PUSH1 0xE0 SHR DUP1 PUSH4 0x28795C62 EQ PUSH2 0x46 JUMPI DUP1 PUSH4 0x9BDA3044 EQ PUSH2 0x62 JUMPI DUP1 PUSH4 0xDB024F45 EQ PUSH2 0x7E JUMPI JUMPDEST PUSH1 0x0 DUP1 REVERT JUMPDEST PUSH2 0x60 PUSH1 0x4 DUP1 CALLDATASIZE SUB DUP2 ADD SWAP1 PUSH2 0x5B SWAP2 SWAP1 PUSH2 0x414 JUMP JUMPDEST PUSH2 0x9A JUMP JUMPDEST STOP JUMPDEST PUSH2 0x7C PUSH1 0x4 DUP1 CALLDATASIZE SUB DUP2 ADD SWAP1 PUSH2 0x77 SWAP2 SWAP1 PUSH2 0x49F JUMP JUMPDEST PUSH2 0xDA JUMP JUMPDEST STOP JUMPDEST PUSH2 0x98 PUSH1 0x4 DUP1 CALLDATASIZE SUB DUP2 ADD SWAP1 PUSH2 0x93 SWAP2 SWAP1 PUSH2 0x389 JUMP JUMPDEST PUSH2 0x11D JUMP JUMPDEST STOP JUMPDEST PUSH32 0x8E2D55122A9E75582862787A3E1E2332368AE3E0E8AADE6D57C828FC64CAB434 DUP4 DUP4 DUP4 PUSH1 0x40 MLOAD PUSH2 0xCD SWAP4 SWAP3 SWAP2 SWAP1 PUSH2 0x6CC JUMP JUMPDEST PUSH1 0x40 MLOAD DUP1 SWAP2 SUB SWAP1 LOG1 POP POP POP JUMP JUMPDEST PUSH32 0xF51D5AF2AF5B8BBD9ABF91F887430CA874939ABD553686542340515E5793C994 DUP5 DUP5 DUP5 DUP5 PUSH1 0x40 MLOAD PUSH2 0x10F SWAP5 SWAP4 SWAP3 SWAP2 SWAP1 PUSH2 0x711 JUMP JUMPDEST PUSH1 0x40 MLOAD DUP1 SWAP2 SUB SWAP1 LOG1 POP POP POP POP JUMP JUMPDEST PUSH1 0x0 DUP4 SWAP1 POP DUP1 PUSH20 0xFFFFFFFFFFFFFFFFFFFFFFFFFFFFFFFFFFFFFFFF AND PUSH4 0x5537AE51 DUP5 DUP5 PUSH1 0x40 MLOAD DUP4 PUSH4 0xFFFFFFFF AND PUSH1 0xE0 SHL DUP2 MSTORE PUSH1 0x4 ADD PUSH2 0x15D SWAP3 SWAP2 SWAP1 PUSH2 0x695 JUMP JUMPDEST PUSH1 0x0 PUSH1 0x40 MLOAD DUP1 DUP4 SUB DUP2 PUSH1 0x0 DUP8 DUP1 EXTCODESIZE ISZERO DUP1 ISZERO PUSH2 0x177 JUMPI PUSH1 0x0 DUP1 REVERT JUMPDEST POP GAS CALL ISZERO DUP1 ISZERO PUSH2 0x18B JUMPI RETURNDATASIZE PUSH1 0x0 DUP1 RETURNDATACOPY RETURNDATASIZE PUSH1 0x0 REVERT JUMPDEST POP POP POP POP POP POP POP POP JUMP JUMPDEST PUSH1 0x0 PUSH2 0x1A8 PUSH2 0x1A3 DUP5 PUSH2 0x77B JUMP JUMPDEST PUSH2 0x756 JUMP JUMPDEST SWAP1 POP DUP1 DUP4 DUP3 MSTORE PUSH1 0x20 DUP3 ADD SWAP1 POP DUP3 DUP6 PUSH1 0x20 DUP7 MUL DUP3 ADD GT ISZERO PUSH2 0x1CB JUMPI PUSH2 0x1CA PUSH2 0x986 JUMP JUMPDEST JUMPDEST PUSH1 0x0 JUMPDEST DUP6 DUP2 LT ISZERO PUSH2 0x219 JUMPI DUP2 CALLDATALOAD PUSH8 0xFFFFFFFFFFFFFFFF DUP2 GT ISZERO PUSH2 0x1F1 JUMPI PUSH2 0x1F0 PUSH2 0x981 JUMP JUMPDEST JUMPDEST DUP1 DUP7 ADD PUSH2 0x1FE DUP10 DUP3 PUSH2 0x346 JUMP JUMPDEST DUP6 MSTORE PUSH1 0x20 DUP6 ADD SWAP5 POP PUSH1 0x20 DUP5 ADD SWAP4 POP POP POP PUSH1 0x1 DUP2 ADD SWAP1 POP PUSH2 0x1CE JUMP JUMPDEST POP POP POP SWAP4 SWAP3 POP POP POP JUMP JUMPDEST PUSH1 0x0 PUSH2 0x236 PUSH2 0x231 DUP5 PUSH2 0x7A7 JUMP JUMPDEST PUSH2 0x756 JUMP JUMPDEST SWAP1 POP DUP1 DUP4 DUP3 MSTORE PUSH1 0x20 DUP3 ADD SWAP1 POP DUP3 DUP6 PUSH1 0x20 DUP7 MUL DUP3 ADD GT ISZERO PUSH2 0x259 JUMPI PUSH2 0x258 PUSH2 0x986 JUMP JUMPDEST JUMPDEST PUSH1 0x0 JUMPDEST DUP6 DUP2 LT ISZERO PUSH2 0x289 JUMPI DUP2 PUSH2 0x26F DUP9 DUP3 PUSH2 0x374 JUMP JUMPDEST DUP5 MSTORE PUSH1 0x20 DUP5 ADD SWAP4 POP PUSH1 0x20 DUP4 ADD SWAP3 POP POP PUSH1 0x1 DUP2 ADD SWAP1 POP PUSH2 0x25C JUMP JUMPDEST POP POP POP SWAP4 SWAP3 POP POP POP JUMP JUMPDEST PUSH1 0x0 PUSH2 0x2A6 PUSH2 0x2A1 DUP5 PUSH2 0x7D3 JUMP JUMPDEST PUSH2 0x756 JUMP JUMPDEST SWAP1 POP DUP3 DUP2 MSTORE PUSH1 0x20 DUP2 ADD DUP5 DUP5 DUP5 ADD GT ISZERO PUSH2 0x2C2 JUMPI PUSH2 0x2C1 PUSH2 0x98B JUMP JUMPDEST JUMPDEST PUSH2 0x2CD DUP5 DUP3 DUP6 PUSH2 0x8DF JUMP JUMPDEST POP SWAP4 SWAP3 POP POP POP JUMP JUMPDEST PUSH1 0x0 DUP2 CALLDATALOAD SWAP1 POP PUSH2 0x2E4 DUP2 PUSH2 0x9AB JUMP JUMPDEST SWAP3 SWAP2 POP POP JUMP JUMPDEST PUSH1 0x0 DUP3 PUSH1 0x1F DUP4 ADD SLT PUSH2 0x2FF JUMPI PUSH2 0x2FE PUSH2 0x981 JUMP JUMPDEST JUMPDEST DUP2 CALLDATALOAD PUSH2 0x30F DUP5 DUP3 PUSH1 0x20 DUP7 ADD PUSH2 0x195 JUMP JUMPDEST SWAP2 POP POP SWAP3 SWAP2 POP POP JUMP JUMPDEST PUSH1 0x0 DUP3 PUSH1 0x1F DUP4 ADD SLT PUSH2 0x32D JUMPI PUSH2 0x32C PUSH2 0x981 JUMP JUMPDEST JUMPDEST DUP2 CALLDATALOAD PUSH2 0x33D DUP5 DUP3 PUSH1 0x20 DUP7 ADD PUSH2 0x223 JUMP JUMPDEST SWAP2 POP POP SWAP3 SWAP2 POP POP JUMP JUMPDEST PUSH1 0x0 DUP3 PUSH1 0x1F DUP4 ADD SLT PUSH2 0x35B JUMPI PUSH2 0x35A PUSH2 0x981 JUMP JUMPDEST JUMPDEST DUP2 CALLDATALOAD PUSH2 0x36B DUP5 DUP3 PUSH1 0x20 DUP7 ADD PUSH2 0x293 JUMP JUMPDEST SWAP2 POP POP SWAP3 SWAP2 POP POP JUMP JUMPDEST PUSH1 0x0 DUP2 CALLDATALOAD SWAP1 POP PUSH2 0x383 DUP2 PUSH2 0x9C2 JUMP JUMPDEST SWAP3 SWAP2 POP POP JUMP JUMPDEST PUSH1 0x0 DUP1 PUSH1 0x0 PUSH1 0x60 DUP5 DUP7 SUB SLT ISZERO PUSH2 0x3A2 JUMPI PUSH2 0x3A1 PUSH2 0x995 JUMP JUMPDEST JUMPDEST PUSH1 0x0 PUSH2 0x3B0 DUP7 DUP3 DUP8 ADD PUSH2 0x2D5 JUMP JUMPDEST SWAP4 POP POP PUSH1 0x20 DUP5 ADD CALLDATALOAD PUSH8 0xFFFFFFFFFFFFFFFF DUP2 GT ISZERO PUSH2 0x3D1 JUMPI PUSH2 0x3D0 PUSH2 0x990 JUMP JUMPDEST JUMPDEST PUSH2 0x3DD DUP7 DUP3 DUP8 ADD PUSH2 0x346 JUMP JUMPDEST SWAP3 POP POP PUSH1 0x40 DUP5 ADD CALLDATALOAD PUSH8 0xFFFFFFFFFFFFFFFF DUP2 GT ISZERO PUSH2 0x3FE JUMPI PUSH2 0x3FD PUSH2 0x990 JUMP JUMPDEST JUMPDEST PUSH2 0x40A DUP7 DUP3 DUP8 ADD PUSH2 0x346 JUMP JUMPDEST SWAP2 POP POP SWAP3 POP SWAP3 POP SWAP3 JUMP JUMPDEST PUSH1 0x0 DUP1 PUSH1 0x0 PUSH1 0x60 DUP5 DUP7 SUB SLT ISZERO PUSH2 0x42D JUMPI PUSH2 0x42C PUSH2 0x995 JUMP JUMPDEST JUMPDEST PUSH1 0x0 PUSH2 0x43B DUP7 DUP3 DUP8 ADD PUSH2 0x374 JUMP JUMPDEST SWAP4 POP POP PUSH1 0x20 DUP5 ADD CALLDATALOAD PUSH8 0xFFFFFFFFFFFFFFFF DUP2 GT ISZERO PUSH2 0x45C JUMPI PUSH2 0x45B PUSH2 0x990 JUMP JUMPDEST JUMPDEST PUSH2 0x468 DUP7 DUP3 DUP8 ADD PUSH2 0x318 JUMP JUMPDEST SWAP3 POP POP PUSH1 0x40 DUP5 ADD CALLDATALOAD PUSH8 0xFFFFFFFFFFFFFFFF DUP2 GT ISZERO PUSH2 0x489 JUMPI PUSH2 0x488 PUSH2 0x990 JUMP JUMPDEST JUMPDEST PUSH2 0x495 DUP7 DUP3 DUP8 ADD PUSH2 0x2EA JUMP JUMPDEST SWAP2 POP POP SWAP3 POP SWAP3 POP SWAP3 JUMP JUMPDEST PUSH1 0x0 DUP1 PUSH1 0x0 DUP1 PUSH1 0x80 DUP6 DUP8 SUB SLT ISZERO PUSH2 0x4B9 JUMPI PUSH2 0x4B8 PUSH2 0x995 JUMP JUMPDEST JUMPDEST PUSH1 0x0 PUSH2 0x4C7 DUP8 DUP3 DUP9 ADD PUSH2 0x374 JUMP JUMPDEST SWAP5 POP POP PUSH1 0x20 PUSH2 0x4D8 DUP8 DUP3 DUP9 ADD PUSH2 0x374 JUMP JUMPDEST SWAP4 POP POP PUSH1 0x40 PUSH2 0x4E9 DUP8 DUP3 DUP9 ADD PUSH2 0x374 JUMP JUMPDEST SWAP3 POP POP PUSH1 0x60 PUSH2 0x4FA DUP8 DUP3 DUP9 ADD PUSH2 0x374 JUMP JUMPDEST SWAP2 POP POP SWAP3 SWAP6 SWAP2 SWAP5 POP SWAP3 POP JUMP JUMPDEST PUSH1 0x0 PUSH2 0x512 DUP4 DUP4 PUSH2 0x605 JUMP JUMPDEST SWAP1 POP SWAP3 SWAP2 POP POP JUMP JUMPDEST PUSH1 0x0 PUSH2 0x526 DUP4 DUP4 PUSH2 0x677 JUMP JUMPDEST PUSH1 0x20 DUP4 ADD SWAP1 POP SWAP3 SWAP2 POP POP JUMP JUMPDEST PUSH1 0x0 PUSH2 0x53D DUP3 PUSH2 0x824 JUMP JUMPDEST PUSH2 0x547 DUP2 DUP6 PUSH2 0x85F JUMP JUMPDEST SWAP4 POP DUP4 PUSH1 0x20 DUP3 MUL DUP6 ADD PUSH2 0x559 DUP6 PUSH2 0x804 JUMP JUMPDEST DUP1 PUSH1 0x0 JUMPDEST DUP6 DUP2 LT ISZERO PUSH2 0x595 JUMPI DUP5 DUP5 SUB DUP10 MSTORE DUP2 MLOAD PUSH2 0x576 DUP6 DUP3 PUSH2 0x506 JUMP JUMPDEST SWAP5 POP PUSH2 0x581 DUP4 PUSH2 0x845 JUMP JUMPDEST SWAP3 POP PUSH1 0x20 DUP11 ADD SWAP10 POP POP PUSH1 0x1 DUP2 ADD SWAP1 POP PUSH2 0x55D JUMP JUMPDEST POP DUP3 SWAP8 POP DUP8 SWAP6 POP POP POP POP POP POP SWAP3 SWAP2 POP POP JUMP JUMPDEST PUSH1 0x0 PUSH2 0x5B2 DUP3 PUSH2 0x82F JUMP JUMPDEST PUSH2 0x5BC DUP2 DUP6 PUSH2 0x870 JUMP JUMPDEST SWAP4 POP PUSH2 0x5C7 DUP4 PUSH2 0x814 JUMP JUMPDEST DUP1 PUSH1 0x0 JUMPDEST DUP4 DUP2 LT ISZERO PUSH2 0x5F8 JUMPI DUP2 MLOAD PUSH2 0x5DF DUP9 DUP3 PUSH2 0x51A JUMP JUMPDEST SWAP8 POP PUSH2 0x5EA DUP4 PUSH2 0x852 JUMP JUMPDEST SWAP3 POP POP PUSH1 0x1 DUP2 ADD SWAP1 POP PUSH2 0x5CB JUMP JUMPDEST POP DUP6 SWAP4 POP POP POP POP SWAP3 SWAP2 POP POP JUMP JUMPDEST PUSH1 0x0 PUSH2 0x610 DUP3 PUSH2 0x83A JUMP JUMPDEST PUSH2 0x61A DUP2 DUP6 PUSH2 0x881 JUMP JUMPDEST SWAP4 POP PUSH2 0x62A DUP2 DUP6 PUSH1 0x20 DUP7 ADD PUSH2 0x8EE JUMP JUMPDEST PUSH2 0x633 DUP2 PUSH2 0x99A JUMP JUMPDEST DUP5 ADD SWAP2 POP POP SWAP3 SWAP2 POP POP JUMP JUMPDEST PUSH1 0x0 PUSH2 0x649 DUP3 PUSH2 0x83A JUMP JUMPDEST PUSH2 0x653 DUP2 DUP6 PUSH2 0x892 JUMP JUMPDEST SWAP4 POP PUSH2 0x663 DUP2 DUP6 PUSH1 0x20 DUP7 ADD PUSH2 0x8EE JUMP JUMPDEST PUSH2 0x66C DUP2 PUSH2 0x99A JUMP JUMPDEST DUP5 ADD SWAP2 POP POP SWAP3 SWAP2 POP POP JUMP JUMPDEST PUSH2 0x680 DUP2 PUSH2 0x8D5 JUMP JUMPDEST DUP3 MSTORE POP POP JUMP JUMPDEST PUSH2 0x68F DUP2 PUSH2 0x8D5 JUMP JUMPDEST DUP3 MSTORE POP POP JUMP JUMPDEST PUSH1 0x0 PUSH1 0x40 DUP3 ADD SWAP1 POP DUP2 DUP2 SUB PUSH1 0x0 DUP4 ADD MSTORE PUSH2 0x6AF DUP2 DUP6 PUSH2 0x63E JUMP JUMPDEST SWAP1 POP DUP2 DUP2 SUB PUSH1 0x20 DUP4 ADD MSTORE PUSH2 0x6C3 DUP2 DUP5 PUSH2 0x63E JUMP JUMPDEST SWAP1 POP SWAP4 SWAP3 POP POP POP JUMP JUMPDEST PUSH1 0x0 PUSH1 0x60 DUP3 ADD SWAP1 POP PUSH2 0x6E1 PUSH1 0x0 DUP4 ADD DUP7 PUSH2 0x686 JUMP JUMPDEST DUP2 DUP2 SUB PUSH1 0x20 DUP4 ADD MSTORE PUSH2 0x6F3 DUP2 DUP6 PUSH2 0x5A7 JUMP JUMPDEST SWAP1 POP DUP2 DUP2 SUB PUSH1 0x40 DUP4 ADD MSTORE PUSH2 0x707 DUP2 DUP5 PUSH2 0x532 JUMP JUMPDEST SWAP1 POP SWAP5 SWAP4 POP POP POP POP JUMP JUMPDEST PUSH1 0x0 PUSH1 0x80 DUP3 ADD SWAP1 POP PUSH2 0x726 PUSH1 0x0 DUP4 ADD DUP8 PUSH2 0x686 JUMP JUMPDEST PUSH2 0x733 PUSH1 0x20 DUP4 ADD DUP7 PUSH2 0x686 JUMP JUMPDEST PUSH2 0x740 PUSH1 0x40 DUP4 ADD DUP6 PUSH2 0x686 JUMP JUMPDEST PUSH2 0x74D PUSH1 0x60 DUP4 ADD DUP5 PUSH2 0x686 JUMP JUMPDEST SWAP6 SWAP5 POP POP POP POP POP JUMP JUMPDEST PUSH1 0x0 PUSH2 0x760 PUSH2 0x771 JUMP JUMPDEST SWAP1 POP PUSH2 0x76C DUP3 DUP3 PUSH2 0x921 JUMP JUMPDEST SWAP2 SWAP1 POP JUMP JUMPDEST PUSH1 0x0 PUSH1 0x40 MLOAD SWAP1 POP SWAP1 JUMP JUMPDEST PUSH1 0x0 PUSH8 0xFFFFFFFFFFFFFFFF DUP3 GT ISZERO PUSH2 0x796 JUMPI PUSH2 0x795 PUSH2 0x952 JUMP JUMPDEST JUMPDEST PUSH1 0x20 DUP3 MUL SWAP1 POP PUSH1 0x20 DUP2 ADD SWAP1 POP SWAP2 SWAP1 POP JUMP JUMPDEST PUSH1 0x0 PUSH8 0xFFFFFFFFFFFFFFFF DUP3 GT ISZERO PUSH2 0x7C2 JUMPI PUSH2 0x7C1 PUSH2 0x952 JUMP JUMPDEST JUMPDEST PUSH1 0x20 DUP3 MUL SWAP1 POP PUSH1 0x20 DUP2 ADD SWAP1 POP SWAP2 SWAP1 POP JUMP JUMPDEST PUSH1 0x0 PUSH8 0xFFFFFFFFFFFFFFFF DUP3 GT ISZERO PUSH2 0x7EE JUMPI PUSH2 0x7ED PUSH2 0x952 JUMP JUMPDEST JUMPDEST PUSH2 0x7F7 DUP3 PUSH2 0x99A JUMP JUMPDEST SWAP1 POP PUSH1 0x20 DUP2 ADD SWAP1 POP SWAP2 SWAP1 POP JUMP JUMPDEST PUSH1 0x0 DUP2 SWAP1 POP PUSH1 0x20 DUP3 ADD SWAP1 POP SWAP2 SWAP1 POP JUMP JUMPDEST PUSH1 0x0 DUP2 SWAP1 POP PUSH1 0x20 DUP3 ADD SWAP1 POP SWAP2 SWAP1 POP JUMP JUMPDEST PUSH1 0x0 DUP2 MLOAD SWAP1 POP SWAP2 SWAP1 POP JUMP JUMPDEST PUSH1 0x0 DUP2 MLOAD SWAP1 POP SWAP2 SWAP1 POP JUMP JUMPDEST PUSH1 0x0 DUP2 MLOAD SWAP1 POP SWAP2 SWAP1 POP JUMP JUMPDEST PUSH1 0x0 PUSH1 0x20 DUP3 ADD SWAP1 POP SWAP2 SWAP1 POP JUMP JUMPDEST PUSH1 0x0 PUSH1 0x20 DUP3 ADD SWAP1 POP SWAP2 SWAP1 POP JUMP JUMPDEST PUSH1 0x0 DUP3 DUP3 MSTORE PUSH1 0x20 DUP3 ADD SWAP1 POP SWAP3 SWAP2 POP POP JUMP JUMPDEST PUSH1 0x0 DUP3 DUP3 MSTORE PUSH1 0x20 DUP3 ADD SWAP1 POP SWAP3 SWAP2 POP POP JUMP JUMPDEST PUSH1 0x0 DUP3 DUP3 MSTORE PUSH1 0x20 DUP3 ADD SWAP1 POP SWAP3 SWAP2 POP POP JUMP JUMPDEST PUSH1 0x0 DUP3 DUP3 MSTORE PUSH1 0x20 DUP3 ADD SWAP1 POP SWAP3 SWAP2 POP POP JUMP JUMPDEST PUSH1 0x0 PUSH2 0x8AE DUP3 PUSH2 0x8B5 JUMP JUMPDEST SWAP1 POP SWAP2 SWAP1 POP JUMP JUMPDEST PUSH1 0x0 PUSH20 0xFFFFFFFFFFFFFFFFFFFFFFFFFFFFFFFFFFFFFFFF DUP3 AND SWAP1 POP SWAP2 SWAP1 POP JUMP JUMPDEST PUSH1 0x0 DUP2 SWAP1 POP SWAP2 SWAP1 POP JUMP JUMPDEST DUP3 DUP2 DUP4 CALLDATACOPY PUSH1 0x0 DUP4 DUP4 ADD MSTORE POP POP POP JUMP JUMPDEST PUSH1 0x0 JUMPDEST DUP4 DUP2 LT ISZERO PUSH2 0x90C JUMPI DUP1 DUP3 ADD MLOAD DUP2 DUP5 ADD MSTORE PUSH1 0x20 DUP2 ADD SWAP1 POP PUSH2 0x8F1 JUMP JUMPDEST DUP4 DUP2 GT ISZERO PUSH2 0x91B JUMPI PUSH1 0x0 DUP5 DUP5 ADD MSTORE JUMPDEST POP POP POP POP JUMP JUMPDEST PUSH2 0x92A DUP3 PUSH2 0x99A JUMP JUMPDEST DUP2 ADD DUP2 DUP2 LT PUSH8 0xFFFFFFFFFFFFFFFF DUP3 GT OR ISZERO PUSH2 0x949 JUMPI PUSH2 0x948 PUSH2 0x952 JUMP JUMPDEST JUMPDEST DUP1 PUSH1 0x40 MSTORE POP POP POP JUMP JUMPDEST PUSH32 0x4E487B7100000000000000000000000000000000000000000000000000000000 PUSH1 0x0 MSTORE PUSH1 0x41 PUSH1 0x4 MSTORE PUSH1 0x24 PUSH1 0x0 REVERT JUMPDEST PUSH1 0x0 DUP1 REVERT JUMPDEST PUSH1 0x0 DUP1 REVERT JUMPDEST PUSH1 0x0 DUP1 REVERT JUMPDEST PUSH1 0x0 DUP1 REVERT JUMPDEST PUSH1 0x0 DUP1 REVERT JUMPDEST PUSH1 0x0 PUSH1 0x1F NOT PUSH1 0x1F DUP4 ADD AND SWAP1 POP SWAP2 SWAP1 POP JUMP JUMPDEST PUSH2 0x9B4 DUP2 PUSH2 0x8A3 JUMP JUMPDEST DUP2 EQ PUSH2 0x9BF JUMPI PUSH1 0x0 DUP1 REVERT JUMPDEST POP JUMP JUMPDEST PUSH2 0x9CB DUP2 PUSH2 0x8D5 JUMP JUMPDEST DUP2 EQ PUSH2 0x9D6 JUMPI PUSH1 0x0 DUP1 REVERT JUMPDEST POP JUMP INVALID LOG2 PUSH5 0x6970667358 0x22 SLT KECCAK256 PUSH31 0x36D3BB1B42EDBBDFC514E1AC732A28C2C95640E2CA4226397501568704B8E3 PUSH5 0x736F6C6343 STOP ADDMOD SMOD STOP CALLER "
		},
		"gasEstimates": {
			"creation": {
				"codeDepositCost": "515000",
				"executionCost": "549",
				"totalCost": "515549"
			},
			"external": {
				"requestScore(uint256,uint256,uint256,uint256)": "infinite",
				"requestValue(uint256,uint256[],string[])": "infinite",
				"returnToGateway(address,string,string)": "infinite"
			}
		},
		"methodIdentifiers": {
			"requestScore(uint256,uint256,uint256,uint256)": "9bda3044",
			"requestValue(uint256,uint256[],string[])": "28795c62",
			"returnToGateway(address,string,string)": "db024f45"
		}
	},
	"abi": [
		{
			"anonymous": false,
			"inputs": [
				{
					"indexed": false,
					"internalType": "uint256",
					"name": "sellerId",
					"type": "uint256"
				},
				{
					"indexed": false,
					"internalType": "uint256",
					"name": "token_val",
					"type": "uint256"
				},
				{
					"indexed": false,
					"internalType": "uint256",
					"name": "user_id",
					"type": "uint256"
				},
				{
					"indexed": false,
					"internalType": "uint256",
					"name": "indi_score",
					"type": "uint256"
				}
			],
			"name": "RequestScoreEvent",
			"type": "event"
		},
		{
			"anonymous": false,
			"inputs": [
				{
					"indexed": false,
					"internalType": "uint256",
					"name": "sellerId",
					"type": "uint256"
				},
				{
					"indexed": false,
					"internalType": "uint256[]",
					"name": "userId",
					"type": "uint256[]"
				},
				{
					"indexed": false,
					"internalType": "string[]",
					"name": "array",
					"type": "string[]"
				}
			],
			"name": "RequestValueEvent",
			"type": "event"
		},
		{
			"inputs": [
				{
					"internalType": "uint256",
					"name": "_sellerId",
					"type": "uint256"
				},
				{
					"internalType": "uint256",
					"name": "token_val",
					"type": "uint256"
				},
				{
					"internalType": "uint256",
					"name": "user_id",
					"type": "uint256"
				},
				{
					"internalType": "uint256",
					"name": "_indi_score",
					"type": "uint256"
				}
			],
			"name": "requestScore",
			"outputs": [],
			"stateMutability": "nonpayable",
			"type": "function"
		},
		{
			"inputs": [
				{
					"internalType": "uint256",
					"name": "_sellerId",
					"type": "uint256"
				},
				{
					"internalType": "uint256[]",
					"name": "_userId",
					"type": "uint256[]"
				},
				{
					"internalType": "string[]",
					"name": "_array",
					"type": "string[]"
				}
			],
			"name": "requestValue",
			"outputs": [],
			"stateMutability": "nonpayable",
			"type": "function"
		},
		{
			"inputs": [
				{
					"internalType": "address",
					"name": "_gateway_address",
					"type": "address"
				},
				{
					"internalType": "string",
					"name": "_aggr_score",
					"type": "string"
				},
				{
					"internalType": "string",
					"name": "_off_chain",
					"type": "string"
				}
			],
			"name": "returnToGateway",
			"outputs": [],
			"stateMutability": "nonpayable",
			"type": "function"
		}
	]
}