{
  "contractName": "GatewayInterface",
  "abi": [
    {
      "inputs": [],
      "name": "aggr_score",
      "outputs": [
        {
          "internalType": "string",
          "name": "",
          "type": "string"
        }
      ],
      "stateMutability": "view",
      "type": "function",
      "constant": true
    },
    {
      "inputs": [],
      "name": "off_chain",
      "outputs": [
        {
          "internalType": "string",
          "name": "",
          "type": "string"
        }
      ],
      "stateMutability": "view",
      "type": "function",
      "constant": true
    },
    {
      "inputs": [],
      "name": "get_on_chain",
      "outputs": [
        {
          "internalType": "string",
          "name": "",
          "type": "string"
        }
      ],
      "stateMutability": "view",
      "type": "function",
      "constant": true
    },
    {
      "inputs": [],
      "name": "get_off_chain",
      "outputs": [
        {
          "internalType": "string",
          "name": "",
          "type": "string"
        }
      ],
      "stateMutability": "view",
      "type": "function",
      "constant": true
    },
    {
      "inputs": [
        {
          "internalType": "string",
          "name": "_aggr_score",
          "type": "string"
        },
        {
          "internalType": "string",
          "name": "_off_chain",
          "type": "string"
        }
      ],
      "name": "callback",
      "outputs": [],
      "stateMutability": "nonpayable",
      "type": "function"
    }
  ],
  "bytecode": "0x608060405234801561001057600080fd5b506106ca806100206000396000f3fe608060405234801561001057600080fd5b50600436106100575760003560e01c80635537ae511461005c57806378e661c514610078578063b6063d6a14610096578063e85acb5d146100b4578063e8fa04ef146100d2575b600080fd5b6100766004803603810190610071919061046d565b6100f0565b005b610080610122565b60405161008d9190610512565b60405180910390f35b61009e6101b4565b6040516100ab9190610512565b60405180910390f35b6100bc610242565b6040516100c99190610512565b60405180910390f35b6100da6102d0565b6040516100e79190610512565b60405180910390f35b8160009080519060200190610106929190610362565b50806001908051906020019061011d929190610362565b505050565b606060018054610131906105f3565b80601f016020809104026020016040519081016040528092919081815260200182805461015d906105f3565b80156101aa5780601f1061017f576101008083540402835291602001916101aa565b820191906000526020600020905b81548152906001019060200180831161018d57829003601f168201915b5050505050905090565b600180546101c1906105f3565b80601f01602080910402602001604051908101604052809291908181526020018280546101ed906105f3565b801561023a5780601f1061020f5761010080835404028352916020019161023a565b820191906000526020600020905b81548152906001019060200180831161021d57829003601f168201915b505050505081565b6000805461024f906105f3565b80601f016020809104026020016040519081016040528092919081815260200182805461027b906105f3565b80156102c85780601f1061029d576101008083540402835291602001916102c8565b820191906000526020600020905b8154815290600101906020018083116102ab57829003601f168201915b505050505081565b6060600080546102df906105f3565b80601f016020809104026020016040519081016040528092919081815260200182805461030b906105f3565b80156103585780601f1061032d57610100808354040283529160200191610358565b820191906000526020600020905b81548152906001019060200180831161033b57829003601f168201915b5050505050905090565b82805461036e906105f3565b90600052602060002090601f01602090048101928261039057600085556103d7565b82601f106103a957805160ff19168380011785556103d7565b828001600101855582156103d7579182015b828111156103d65782518255916020019190600101906103bb565b5b5090506103e491906103e8565b5090565b5b808211156104015760008160009055506001016103e9565b5090565b600061041861041384610565565b610534565b90508281526020810184848401111561043057600080fd5b61043b8482856105b1565b509392505050565b600082601f83011261045457600080fd5b8135610464848260208601610405565b91505092915050565b6000806040838503121561048057600080fd5b600083013567ffffffffffffffff81111561049a57600080fd5b6104a685828601610443565b925050602083013567ffffffffffffffff8111156104c357600080fd5b6104cf85828601610443565b9150509250929050565b60006104e482610595565b6104ee81856105a0565b93506104fe8185602086016105c0565b61050781610683565b840191505092915050565b6000602082019050818103600083015261052c81846104d9565b905092915050565b6000604051905081810181811067ffffffffffffffff8211171561055b5761055a610654565b5b8060405250919050565b600067ffffffffffffffff8211156105805761057f610654565b5b601f19601f8301169050602081019050919050565b600081519050919050565b600082825260208201905092915050565b82818337600083830152505050565b60005b838110156105de5780820151818401526020810190506105c3565b838111156105ed576000848401525b50505050565b6000600282049050600182168061060b57607f821691505b6020821081141561061f5761061e610625565b5b50919050565b7f4e487b7100000000000000000000000000000000000000000000000000000000600052602260045260246000fd5b7f4e487b7100000000000000000000000000000000000000000000000000000000600052604160045260246000fd5b6000601f19601f830116905091905056fea2646970667358221220a6b75c5fe5cd4d7b635e556ad0ed6cb90656fb8ea6f8503d3da951b6224aaaca64736f6c63430008000033",
  "immutableReferences": {},
  "source": "// SPDX-License-Identifier: MIT\n\n\npragma solidity ^0.8.0;\n\ncontract GatewayInterface {\n    \n    string public aggr_score;\n    string public off_chain;\n    \n    \n    function get_on_chain() public view returns (string memory) {\n        return aggr_score;\n    }\n    \n    function get_off_chain() public view returns (string memory) {\n        return off_chain;\n    }\n    \n    function callback(string memory _aggr_score, string memory _off_chain) public {\n        aggr_score = _aggr_score;\n        off_chain = _off_chain;\n    }\n    \n}",
  "sourcePath": "/home/torch/Desktop/Work/MetaGov/Reputalble/REPUTABLE/contracts/Gateway.sol",
  "compiler": {
    "name": "solc",
    "version": "0.8.0+commit.c7dfd78e.Emscripten.clang"
  },
  "schemaVersion": "3.4.14",
  "updatedAt": "2023-07-04T23:49:18.115Z",
  "networkType": "ethereum",
  "devdoc": {
    "kind": "dev",
    "methods": {},
    "version": 1
  },
  "userdoc": {
    "kind": "user",
    "methods": {},
    "version": 1
  }
}