{
  "contractName": "OnChainReputationData",
  "abi": [
    {
      "inputs": [
        {
          "internalType": "uint256",
          "name": "",
          "type": "uint256"
        }
      ],
      "name": "seller_score",
      "outputs": [
        {
          "internalType": "string",
          "name": "",
          "type": "string"
        }
      ],
      "stateMutability": "view",
      "type": "function",
      "constant": true
    },
    {
      "inputs": [
        {
          "internalType": "uint256",
          "name": "_seller_id",
          "type": "uint256"
        },
        {
          "internalType": "string",
          "name": "_score",
          "type": "string"
        }
      ],
      "name": "add_rep_data",
      "outputs": [],
      "stateMutability": "nonpayable",
      "type": "function"
    },
    {
      "inputs": [
        {
          "internalType": "uint256",
          "name": "_seller_id",
          "type": "uint256"
        }
      ],
      "name": "get_rep_data",
      "outputs": [
        {
          "internalType": "string",
          "name": "",
          "type": "string"
        }
      ],
      "stateMutability": "view",
      "type": "function",
      "constant": true
    }
  ],
  "bytecode": "0x60806040526040518060400160405280600581526020017f656d7074790000000000000000000000000000000000000000000000000000008152506002908051906020019061004f929190610062565b5034801561005c57600080fd5b50610166565b82805461006e90610105565b90600052602060002090601f01602090048101928261009057600085556100d7565b82601f106100a957805160ff19168380011785556100d7565b828001600101855582156100d7579182015b828111156100d65782518255916020019190600101906100bb565b5b5090506100e491906100e8565b5090565b5b808211156101015760008160009055506001016100e9565b5090565b6000600282049050600182168061011d57607f821691505b6020821081141561013157610130610137565b5b50919050565b7f4e487b7100000000000000000000000000000000000000000000000000000000600052602260045260246000fd5b610620806101756000396000f3fe608060405234801561001057600080fd5b50600436106100415760003560e01c80638f88a47514610046578063981a6a7114610062578063b128106b14610092575b600080fd5b610060600480360381019061005b91906103ba565b6100c2565b005b61007c60048036038101906100779190610391565b61012d565b6040516100899190610447565b60405180910390f35b6100ac60048036038101906100a79190610391565b6101cd565b6040516100b99190610447565b60405180910390f35b8060008084815260200190815260200160002090805190602001906100e8929190610271565b5060018290806001815401808255809150506001900390600052602060002001600090919091909150558060029080519060200190610128929190610271565b505050565b6000602052806000526040600020600091509050805461014c90610532565b80601f016020809104026020016040519081016040528092919081815260200182805461017890610532565b80156101c55780601f1061019a576101008083540402835291602001916101c5565b820191906000526020600020905b8154815290600101906020018083116101a857829003601f168201915b505050505081565b606060008083815260200190815260200160002080546101ec90610532565b80601f016020809104026020016040519081016040528092919081815260200182805461021890610532565b80156102655780601f1061023a57610100808354040283529160200191610265565b820191906000526020600020905b81548152906001019060200180831161024857829003601f168201915b50505050509050919050565b82805461027d90610532565b90600052602060002090601f01602090048101928261029f57600085556102e6565b82601f106102b857805160ff19168380011785556102e6565b828001600101855582156102e6579182015b828111156102e55782518255916020019190600101906102ca565b5b5090506102f391906102f7565b5090565b5b808211156103105760008160009055506001016102f8565b5090565b60006103276103228461049a565b610469565b90508281526020810184848401111561033f57600080fd5b61034a8482856104f0565b509392505050565b600082601f83011261036357600080fd5b8135610373848260208601610314565b91505092915050565b60008135905061038b816105d3565b92915050565b6000602082840312156103a357600080fd5b60006103b18482850161037c565b91505092915050565b600080604083850312156103cd57600080fd5b60006103db8582860161037c565b925050602083013567ffffffffffffffff8111156103f857600080fd5b61040485828601610352565b9150509250929050565b6000610419826104ca565b61042381856104d5565b93506104338185602086016104ff565b61043c816105c2565b840191505092915050565b60006020820190508181036000830152610461818461040e565b905092915050565b6000604051905081810181811067ffffffffffffffff821117156104905761048f610593565b5b8060405250919050565b600067ffffffffffffffff8211156104b5576104b4610593565b5b601f19601f8301169050602081019050919050565b600081519050919050565b600082825260208201905092915050565b6000819050919050565b82818337600083830152505050565b60005b8381101561051d578082015181840152602081019050610502565b8381111561052c576000848401525b50505050565b6000600282049050600182168061054a57607f821691505b6020821081141561055e5761055d610564565b5b50919050565b7f4e487b7100000000000000000000000000000000000000000000000000000000600052602260045260246000fd5b7f4e487b7100000000000000000000000000000000000000000000000000000000600052604160045260246000fd5b6000601f19601f8301169050919050565b6105dc816104e6565b81146105e757600080fd5b5056fea264697066735822122092f26fe146fcd824c39ff0b669021ca86cf1af5e375b8a486eb7e721dbbe12b864736f6c63430008000033",
  "immutableReferences": {},
  "source": "pragma solidity ^0.8.0;\n\ncontract OnChainReputationData{\n\n    //struct to store the aggr score with seller id and \n    //mapping of seller id to uint score\n\n    //function to add aggr score (passes seller id and aggr score)\n\n    //function get_rep_score(seller_id) returns the aggr score (uint)\n    mapping(uint => string) public seller_score;\n    uint [] scoreArr;\n    string score = \"empty\";\n\n    function add_rep_data(uint _seller_id, string memory _score) public{\n        seller_score[_seller_id] = _score;\n        scoreArr.push(_seller_id);\n        score = _score;\n    }\n\n    function get_rep_data(uint _seller_id) public view returns (string memory) {\n        return seller_score[_seller_id];\n    }\n\n}",
  "sourcePath": "/home/torch/Desktop/Work/MetaGov/Reputalble/REPUTABLE/contracts/OnchainReputationData.sol",
  "compiler": {
    "name": "solc",
    "version": "0.8.0+commit.c7dfd78e.Emscripten.clang"
  },
  "schemaVersion": "3.4.14",
  "updatedAt": "2023-07-04T23:49:18.639Z",
  "networkType": "ethereum",
  "devdoc": {
    "kind": "dev",
    "methods": {},
    "version": 1
  },
  "userdoc": {
    "kind": "user",
    "methods": {},
    "version": 1
  }
}