{
  "contractName": "OracleInterface",
  "abi": [
    {
      "anonymous": false,
      "inputs": [
        {
          "indexed": false,
          "internalType": "uint256",
          "name": "sellerId",
          "type": "uint256"
        },
        {
          "indexed": false,
          "internalType": "uint256",
          "name": "token_val",
          "type": "uint256"
        },
        {
          "indexed": false,
          "internalType": "uint256",
          "name": "user_id",
          "type": "uint256"
        },
        {
          "indexed": false,
          "internalType": "uint256",
          "name": "indi_score",
          "type": "uint256"
        }
      ],
      "name": "RequestScoreEvent",
      "type": "event"
    },
    {
      "anonymous": false,
      "inputs": [
        {
          "indexed": false,
          "internalType": "uint256",
          "name": "sellerId",
          "type": "uint256"
        },
        {
          "indexed": false,
          "internalType": "uint256[]",
          "name": "userId",
          "type": "uint256[]"
        },
        {
          "indexed": false,
          "internalType": "string[]",
          "name": "array",
          "type": "string[]"
        }
      ],
      "name": "RequestValueEvent",
      "type": "event"
    },
    {
      "inputs": [
        {
          "internalType": "uint256",
          "name": "_sellerId",
          "type": "uint256"
        },
        {
          "internalType": "uint256[]",
          "name": "_userId",
          "type": "uint256[]"
        },
        {
          "internalType": "string[]",
          "name": "_array",
          "type": "string[]"
        }
      ],
      "name": "requestValue",
      "outputs": [],
      "stateMutability": "nonpayable",
      "type": "function"
    },
    {
      "inputs": [
        {
          "internalType": "uint256",
          "name": "_sellerId",
          "type": "uint256"
        },
        {
          "internalType": "uint256",
          "name": "token_val",
          "type": "uint256"
        },
        {
          "internalType": "uint256",
          "name": "user_id",
          "type": "uint256"
        },
        {
          "internalType": "uint256",
          "name": "_indi_score",
          "type": "uint256"
        }
      ],
      "name": "requestScore",
      "outputs": [],
      "stateMutability": "nonpayable",
      "type": "function"
    },
    {
      "inputs": [
        {
          "internalType": "address",
          "name": "_gateway_address",
          "type": "address"
        },
        {
          "internalType": "string",
          "name": "_aggr_score",
          "type": "string"
        },
        {
          "internalType": "string",
          "name": "_off_chain",
          "type": "string"
        }
      ],
      "name": "returnToGateway",
      "outputs": [],
      "stateMutability": "nonpayable",
      "type": "function"
    }
  ],
  "bytecode": "0x608060405234801561001057600080fd5b5061096f806100206000396000f3fe608060405234801561001057600080fd5b50600436106100415760003560e01c806328795c62146100465780639bda304414610062578063db024f451461007e575b600080fd5b610060600480360381019061005b91906103c3565b61009a565b005b61007c60048036038101906100779190610442565b6100da565b005b61009860048036038101906100939190610344565b61011d565b005b7f8e2d55122a9e75582862787a3e1e2332368ae3e0e8aade6d57c828fc64cab4348383836040516100cd9392919061066b565b60405180910390a1505050565b7ff51d5af2af5b8bbd9abf91f887430ca874939abd553686542340515e5793c9948484848460405161010f94939291906106b0565b60405180910390a150505050565b60008390508073ffffffffffffffffffffffffffffffffffffffff16635537ae5184846040518363ffffffff1660e01b815260040161015d929190610634565b600060405180830381600087803b15801561017757600080fd5b505af115801561018b573d6000803e3d6000fd5b5050505050505050565b60006101a86101a384610726565b6106f5565b9050808382526020820190508260005b858110156101e857813585016101ce8882610305565b8452602084019350602083019250506001810190506101b8565b5050509392505050565b600061020561020084610752565b6106f5565b9050808382526020820190508285602086028201111561022457600080fd5b60005b85811015610254578161023a888261032f565b845260208401935060208301925050600181019050610227565b5050509392505050565b600061027161026c8461077e565b6106f5565b90508281526020810184848401111561028957600080fd5b610294848285610889565b509392505050565b6000813590506102ab8161090b565b92915050565b600082601f8301126102c257600080fd5b81356102d2848260208601610195565b91505092915050565b600082601f8301126102ec57600080fd5b81356102fc8482602086016101f2565b91505092915050565b600082601f83011261031657600080fd5b813561032684826020860161025e565b91505092915050565b60008135905061033e81610922565b92915050565b60008060006060848603121561035957600080fd5b60006103678682870161029c565b935050602084013567ffffffffffffffff81111561038457600080fd5b61039086828701610305565b925050604084013567ffffffffffffffff8111156103ad57600080fd5b6103b986828701610305565b9150509250925092565b6000806000606084860312156103d857600080fd5b60006103e68682870161032f565b935050602084013567ffffffffffffffff81111561040357600080fd5b61040f868287016102db565b925050604084013567ffffffffffffffff81111561042c57600080fd5b610438868287016102b1565b9150509250925092565b6000806000806080858703121561045857600080fd5b60006104668782880161032f565b94505060206104778782880161032f565b93505060406104888782880161032f565b92505060606104998782880161032f565b91505092959194509250565b60006104b183836105a4565b905092915050565b60006104c58383610616565b60208301905092915050565b60006104dc826107ce565b6104e68185610809565b9350836020820285016104f8856107ae565b8060005b85811015610534578484038952815161051585826104a5565b9450610520836107ef565b925060208a019950506001810190506104fc565b50829750879550505050505092915050565b6000610551826107d9565b61055b818561081a565b9350610566836107be565b8060005b8381101561059757815161057e88826104b9565b9750610589836107fc565b92505060018101905061056a565b5085935050505092915050565b60006105af826107e4565b6105b9818561082b565b93506105c9818560208601610898565b6105d2816108fa565b840191505092915050565b60006105e8826107e4565b6105f2818561083c565b9350610602818560208601610898565b61060b816108fa565b840191505092915050565b61061f8161087f565b82525050565b61062e8161087f565b82525050565b6000604082019050818103600083015261064e81856105dd565b9050818103602083015261066281846105dd565b90509392505050565b60006060820190506106806000830186610625565b81810360208301526106928185610546565b905081810360408301526106a681846104d1565b9050949350505050565b60006080820190506106c56000830187610625565b6106d26020830186610625565b6106df6040830185610625565b6106ec6060830184610625565b95945050505050565b6000604051905081810181811067ffffffffffffffff8211171561071c5761071b6108cb565b5b8060405250919050565b600067ffffffffffffffff821115610741576107406108cb565b5b602082029050602081019050919050565b600067ffffffffffffffff82111561076d5761076c6108cb565b5b602082029050602081019050919050565b600067ffffffffffffffff821115610799576107986108cb565b5b601f19601f8301169050602081019050919050565b6000819050602082019050919050565b6000819050602082019050919050565b600081519050919050565b600081519050919050565b600081519050919050565b6000602082019050919050565b6000602082019050919050565b600082825260208201905092915050565b600082825260208201905092915050565b600082825260208201905092915050565b600082825260208201905092915050565b60006108588261085f565b9050919050565b600073ffffffffffffffffffffffffffffffffffffffff82169050919050565b6000819050919050565b82818337600083830152505050565b60005b838110156108b657808201518184015260208101905061089b565b838111156108c5576000848401525b50505050565b7f4e487b7100000000000000000000000000000000000000000000000000000000600052604160045260246000fd5b6000601f19601f8301169050919050565b6109148161084d565b811461091f57600080fd5b50565b61092b8161087f565b811461093657600080fd5b5056fea2646970667358221220932ab4d4ceb6e2be9d09541259bd3a9d31dfbc8975380f12de8cde4067d0cdbf64736f6c63430008000033",
  "immutableReferences": {},
  "source": "// SPDX-License-Identifier: MIT\n\n// Oracle smart contract which will interact with 'Gateway' contract\n\npragma solidity ^0.8.0;\n\nimport \"./Gateway.sol\";\n\ncontract OracleInterface {\n    \n    // Event stored on blockchain whicn oracle backend would poll for\n    // Parameters are taken from event to be parsed by the oracle \n    event RequestValueEvent(uint sellerId, uint[] userId, string[] array);\n    event RequestScoreEvent(uint sellerId, uint token_val, uint user_id, uint indi_score);\n    // event ReturnToClientEvent(uint id, address client_address, uint result);\n    \n    // mapping(uint => bool) public requests_pending; \n    \n    // Gateway contract will interact with this function to use the oracle\n    function requestValue(uint _sellerId, uint[] memory _userId, string[] memory _array) public {\n        // address nonceValue = 0x179288a02eE8a939668DDbb0Ac21b4Fc2A9606A7;\n        // uint id = uint(keccak256(abi.encodePacked(block.timestamp, nonceValue))) % 1000000000000;\n        \n        // requests_pending[id] = true;\n        emit RequestValueEvent(_sellerId, _userId, _array);\n    }\n    \n    function requestScore(uint _sellerId, uint token_val, uint user_id, uint _indi_score) public {\n        emit RequestScoreEvent(_sellerId, token_val, user_id, _indi_score);\n    }\n    \n    // Aggregate score will be returned back to the Gateway contract using this function\n    function returnToGateway(address _gateway_address, string memory _aggr_score, string memory _off_chain) public {\n        // require(requests_pending[_id]);\n        // delete requests_pending[_id];\n        \n        GatewayInterface gatewayContract;\n        gatewayContract = GatewayInterface(_gateway_address);\n        gatewayContract.callback(_aggr_score, _off_chain);\n        // emit ReturnToClientEvent(_id, _client_address, _aggr_score);\n    }\n\n}",
  "sourcePath": "/home/torch/Desktop/Work/MetaGov/Reputalble/REPUTABLE/contracts/Oracle.sol",
  "compiler": {
    "name": "solc",
    "version": "0.8.0+commit.c7dfd78e.Emscripten.clang"
  },
  "schemaVersion": "3.4.14",
  "updatedAt": "2023-06-27T19:09:13.201Z",
  "networkType": "ethereum",
  "devdoc": {
    "kind": "dev",
    "methods": {},
    "version": 1
  },
  "userdoc": {
    "kind": "user",
    "methods": {},
    "version": 1
  }
}