{
  "contractName": "WebInterface",
  "abi": [
    {
      "inputs": [],
      "stateMutability": "nonpayable",
      "type": "constructor"
    },
    {
      "anonymous": false,
      "inputs": [
        {
          "indexed": false,
          "internalType": "uint256",
          "name": "sellerId",
          "type": "uint256"
        },
        {
          "indexed": false,
          "internalType": "uint256",
          "name": "token",
          "type": "uint256"
        },
        {
          "indexed": false,
          "internalType": "uint256",
          "name": "user_id",
          "type": "uint256"
        }
      ],
      "name": "ScoreAdded",
      "type": "event"
    },
    {
      "inputs": [
        {
          "internalType": "uint256",
          "name": "",
          "type": "uint256"
        }
      ],
      "name": "isTokenUsed",
      "outputs": [
        {
          "internalType": "bool",
          "name": "",
          "type": "bool"
        }
      ],
      "stateMutability": "view",
      "type": "function",
      "constant": true
    },
    {
      "inputs": [],
      "name": "oracle_address",
      "outputs": [
        {
          "internalType": "address",
          "name": "",
          "type": "address"
        }
      ],
      "stateMutability": "view",
      "type": "function",
      "constant": true
    },
    {
      "inputs": [
        {
          "internalType": "address",
          "name": "_oracle_address",
          "type": "address"
        }
      ],
      "name": "setOracleAddress",
      "outputs": [],
      "stateMutability": "nonpayable",
      "type": "function"
    },
    {
      "inputs": [
        {
          "internalType": "uint256",
          "name": "_seller_id",
          "type": "uint256"
        }
      ],
      "name": "aggr",
      "outputs": [],
      "stateMutability": "nonpayable",
      "type": "function"
    },
    {
      "inputs": [],
      "name": "getSellerId",
      "outputs": [
        {
          "internalType": "uint256",
          "name": "",
          "type": "uint256"
        }
      ],
      "stateMutability": "view",
      "type": "function",
      "constant": true
    },
    {
      "inputs": [
        {
          "internalType": "uint256",
          "name": "_seller_id",
          "type": "uint256"
        },
        {
          "internalType": "uint256",
          "name": "_token_val",
          "type": "uint256"
        },
        {
          "internalType": "uint256",
          "name": "_user_id",
          "type": "uint256"
        },
        {
          "internalType": "uint256",
          "name": "_val",
          "type": "uint256"
        }
      ],
      "name": "adder",
      "outputs": [],
      "stateMutability": "nonpayable",
      "type": "function"
    },
    {
      "inputs": [
        {
          "internalType": "uint256",
          "name": "_seller_id",
          "type": "uint256"
        },
        {
          "internalType": "uint256",
          "name": "_token_val",
          "type": "uint256"
        },
        {
          "internalType": "uint256",
          "name": "_user_id",
          "type": "uint256"
        },
        {
          "internalType": "string",
          "name": "_enc_val",
          "type": "string"
        }
      ],
      "name": "add",
      "outputs": [],
      "stateMutability": "nonpayable",
      "type": "function"
    },
    {
      "inputs": [],
      "name": "getTokenArr",
      "outputs": [
        {
          "internalType": "uint256[]",
          "name": "",
          "type": "uint256[]"
        }
      ],
      "stateMutability": "view",
      "type": "function",
      "constant": true
    },
    {
      "inputs": [
        {
          "internalType": "uint256",
          "name": "_seller_id",
          "type": "uint256"
        }
      ],
      "name": "getData",
      "outputs": [
        {
          "internalType": "uint256[]",
          "name": "",
          "type": "uint256[]"
        },
        {
          "internalType": "uint256[]",
          "name": "",
          "type": "uint256[]"
        },
        {
          "internalType": "string[]",
          "name": "",
          "type": "string[]"
        }
      ],
      "stateMutability": "view",
      "type": "function",
      "constant": true
    },
    {
      "inputs": [
        {
          "internalType": "uint256",
          "name": "_seller_id",
          "type": "uint256"
        }
      ],
      "name": "ASeller",
      "outputs": [],
      "stateMutability": "nonpayable",
      "type": "function"
    },
    {
      "inputs": [
        {
          "internalType": "uint256",
          "name": "_seller_id",
          "type": "uint256"
        },
        {
          "internalType": "uint256",
          "name": "_token_val",
          "type": "uint256"
        }
      ],
      "name": "isUsed",
      "outputs": [
        {
          "internalType": "bool",
          "name": "",
          "type": "bool"
        }
      ],
      "stateMutability": "view",
      "type": "function",
      "constant": true
    }
  ],
  "bytecode": "0x6080604052600360025534801561001557600080fd5b50611401806100256000396000f3fe608060405234801561001057600080fd5b50600436106100a95760003560e01c80637e0c1792116100715780637e0c1792146101665780638268ac71146101845780639e3ab633146101a0578063ae189078146101bc578063ec2d3ddd146101ec578063ed2f6c6414610208576100a9565b80630178fe3f146100ae5780631b448006146100e05780632e0640d1146100fc5780634c69c00f1461011a5780635d5fb12414610136575b600080fd5b6100c860048036038101906100c39190610cd4565b610226565b6040516100d793929190610fc8565b60405180910390f35b6100fa60048036038101906100f59190610d39565b6103f1565b005b6101046105b9565b6040516101119190610fa6565b60405180910390f35b610134600480360381019061012f9190610cab565b610611565b005b610150600480360381019061014b9190610cfd565b610695565b60405161015d9190611014565b60405180910390f35b61016e6106d4565b60405161017b9190610f8b565b60405180910390f35b61019e60048036038101906101999190610cd4565b6106f8565b005b6101ba60048036038101906101b59190610cd4565b6108e1565b005b6101d660048036038101906101d19190610cd4565b6109a2565b6040516101e39190611014565b60405180910390f35b61020660048036038101906102019190610db4565b6109c2565b005b610210610a5b565b60405161021d919061102f565b60405180910390f35b6060806060600560008581526020019081526020016000206000016005600086815260200190815260200160002060030160056000878152602001908152602001600020600101828054806020026020016040519081016040528092919081815260200182805480156102b857602002820191906000526020600020905b8154815260200190600101908083116102a4575b505050505092508180548060200260200160405190810160405280929190818152602001828054801561030a57602002820191906000526020600020905b8154815260200190600101908083116102f6575b5050505050915080805480602002602001604051908101604052809291908181526020016000905b828210156103de57838290600052602060002001805461035190611284565b80601f016020809104026020016040519081016040528092919081815260200182805461037d90611284565b80156103ca5780601f1061039f576101008083540402835291602001916103ca565b820191906000526020600020905b8154815290600101906020018083116103ad57829003601f168201915b505050505081526020019060010190610332565b5050505090509250925092509193909250565b60056000858152602001908152602001600020600001839080600181540180825580915050600190039060005260206000200160009091909190915055600160056000868152602001908152602001600020600401600085815260200190815260200160002060006101000a81548160ff02191690831515021790555060056000858152602001908152602001600020600101819080600181540180825580915050600190039060005260206000200160009091909190915090805190602001906104bd929190610a65565b5060056000858152602001908152602001600020600301829080600181540180825580915050600190039060005260206000200160009091909190915055600560008581526020019081526020016000206005016000815480929190610522906112b6565b919050555060048490806001815401808255809150506001900390600052602060002001600090919091909150557fc87c879fbde2119679da9f0ea35e544453550ab108497929c33344438c609d7e8484846040516105839392919061108f565b60405180910390a160058060008681526020019081526020016000206005015414156105b3576105b2846106f8565b5b50505050565b6060600480548060200260200160405190810160405280929190818152602001828054801561060757602002820191906000526020600020905b8154815260200190600101908083116105f3575b5050505050905090565b806000806101000a81548173ffffffffffffffffffffffffffffffffffffffff021916908373ffffffffffffffffffffffffffffffffffffffff16021790555080600160006101000a81548173ffffffffffffffffffffffffffffffffffffffff021916908373ffffffffffffffffffffffffffffffffffffffff16021790555050565b600060056000848152602001908152602001600020600401600083815260200190815260200160002060009054906101000a900460ff16905092915050565b60008054906101000a900473ffffffffffffffffffffffffffffffffffffffff1681565b60006005600083815260200190815260200160002060030180548060200260200160405190810160405280929190818152602001828054801561075a57602002820191906000526020600020905b815481526020019060010190808311610746575b50505050509050600060056000848152602001908152602001600020600101805480602002602001604051908101604052809291908181526020016000905b828210156108455783829060005260206000200180546107b890611284565b80601f01602080910402602001604051908101604052809291908181526020018280546107e490611284565b80156108315780601f1061080657610100808354040283529160200191610831565b820191906000526020600020905b81548152906001019060200180831161081457829003601f168201915b505050505081526020019060010190610799565b505050509050600160009054906101000a900473ffffffffffffffffffffffffffffffffffffffff1673ffffffffffffffffffffffffffffffffffffffff166328795c628484846040518463ffffffff1660e01b81526004016108aa9392919061104a565b600060405180830381600087803b1580156108c457600080fd5b505af11580156108d8573d6000803e3d6000fd5b50505050505050565b606080606080600060056000878152602001908152602001600020905081816000019080519060200190610916929190610aeb565b508481600101908051906020019061092f929190610b38565b5083816002019080519060200190610948929190610aeb565b5082816003019080519060200190610961929190610aeb565b50600081600401600088815260200190815260200160002060006101000a81548160ff02191690831515021790555060008160050181905550505050505050565b60036020528060005260406000206000915054906101000a900460ff1681565b600160009054906101000a900473ffffffffffffffffffffffffffffffffffffffff1673ffffffffffffffffffffffffffffffffffffffff16639bda3044858585856040518563ffffffff1660e01b8152600401610a2394939291906110c6565b600060405180830381600087803b158015610a3d57600080fd5b505af1158015610a51573d6000803e3d6000fd5b5050505050505050565b6000600254905090565b828054610a7190611284565b90600052602060002090601f016020900481019282610a935760008555610ada565b82601f10610aac57805160ff1916838001178555610ada565b82800160010185558215610ada579182015b82811115610ad9578251825591602001919060010190610abe565b5b509050610ae79190610b98565b5090565b828054828255906000526020600020908101928215610b27579160200282015b82811115610b26578251825591602001919060010190610b0b565b5b509050610b349190610b98565b5090565b828054828255906000526020600020908101928215610b87579160200282015b82811115610b86578251829080519060200190610b76929190610a65565b5091602001919060010190610b58565b5b509050610b949190610bb5565b5090565b5b80821115610bb1576000816000905550600101610b99565b5090565b5b80821115610bd55760008181610bcc9190610bd9565b50600101610bb6565b5090565b508054610be590611284565b6000825580601f10610bf75750610c16565b601f016020900490600052602060002090810190610c159190610b98565b5b50565b6000610c2c610c278461113c565b61110b565b905082815260208101848484011115610c4457600080fd5b610c4f848285611242565b509392505050565b600081359050610c668161139d565b92915050565b600082601f830112610c7d57600080fd5b8135610c8d848260208601610c19565b91505092915050565b600081359050610ca5816113b4565b92915050565b600060208284031215610cbd57600080fd5b6000610ccb84828501610c57565b91505092915050565b600060208284031215610ce657600080fd5b6000610cf484828501610c96565b91505092915050565b60008060408385031215610d1057600080fd5b6000610d1e85828601610c96565b9250506020610d2f85828601610c96565b9150509250929050565b60008060008060808587031215610d4f57600080fd5b6000610d5d87828801610c96565b9450506020610d6e87828801610c96565b9350506040610d7f87828801610c96565b925050606085013567ffffffffffffffff811115610d9c57600080fd5b610da887828801610c6c565b91505092959194509250565b60008060008060808587031215610dca57600080fd5b6000610dd887828801610c96565b9450506020610de987828801610c96565b9350506040610dfa87828801610c96565b9250506060610e0b87828801610c96565b91505092959194509250565b6000610e238383610f34565b905092915050565b6000610e378383610f6d565b60208301905092915050565b610e4c816111fa565b82525050565b6000610e5d8261118c565b610e6781856111c7565b935083602082028501610e798561116c565b8060005b85811015610eb55784840389528151610e968582610e17565b9450610ea1836111ad565b925060208a01995050600181019050610e7d565b50829750879550505050505092915050565b6000610ed282611197565b610edc81856111d8565b9350610ee78361117c565b8060005b83811015610f18578151610eff8882610e2b565b9750610f0a836111ba565b925050600181019050610eeb565b5085935050505092915050565b610f2e8161120c565b82525050565b6000610f3f826111a2565b610f4981856111e9565b9350610f59818560208601611251565b610f628161138c565b840191505092915050565b610f7681611238565b82525050565b610f8581611238565b82525050565b6000602082019050610fa06000830184610e43565b92915050565b60006020820190508181036000830152610fc08184610ec7565b905092915050565b60006060820190508181036000830152610fe28186610ec7565b90508181036020830152610ff68185610ec7565b9050818103604083015261100a8184610e52565b9050949350505050565b60006020820190506110296000830184610f25565b92915050565b60006020820190506110446000830184610f7c565b92915050565b600060608201905061105f6000830186610f7c565b81810360208301526110718185610ec7565b905081810360408301526110858184610e52565b9050949350505050565b60006060820190506110a46000830186610f7c565b6110b16020830185610f7c565b6110be6040830184610f7c565b949350505050565b60006080820190506110db6000830187610f7c565b6110e86020830186610f7c565b6110f56040830185610f7c565b6111026060830184610f7c565b95945050505050565b6000604051905081810181811067ffffffffffffffff821117156111325761113161135d565b5b8060405250919050565b600067ffffffffffffffff8211156111575761115661135d565b5b601f19601f8301169050602081019050919050565b6000819050602082019050919050565b6000819050602082019050919050565b600081519050919050565b600081519050919050565b600081519050919050565b6000602082019050919050565b6000602082019050919050565b600082825260208201905092915050565b600082825260208201905092915050565b600082825260208201905092915050565b600061120582611218565b9050919050565b60008115159050919050565b600073ffffffffffffffffffffffffffffffffffffffff82169050919050565b6000819050919050565b82818337600083830152505050565b60005b8381101561126f578082015181840152602081019050611254565b8381111561127e576000848401525b50505050565b6000600282049050600182168061129c57607f821691505b602082108114156112b0576112af61132e565b5b50919050565b60006112c182611238565b91507fffffffffffffffffffffffffffffffffffffffffffffffffffffffffffffffff8214156112f4576112f36112ff565b5b600182019050919050565b7f4e487b7100000000000000000000000000000000000000000000000000000000600052601160045260246000fd5b7f4e487b7100000000000000000000000000000000000000000000000000000000600052602260045260246000fd5b7f4e487b7100000000000000000000000000000000000000000000000000000000600052604160045260246000fd5b6000601f19601f8301169050919050565b6113a6816111fa565b81146113b157600080fd5b50565b6113bd81611238565b81146113c857600080fd5b5056fea2646970667358221220cfd84a88bacf2318304f84035108fb97ea83a10bf699bea1e64f2aa621db51a064736f6c63430008000033",
  "immutableReferences": {},
  "source": "// SPDX-License-Identifier: MIT\npragma solidity ^0.8.0;\n\nimport \"./Oracle.sol\";\n\n\ncontract WebInterface {\n    // Aggregator contract\n    address public oracle_address;\n    OracleInterface private oracleContract;\n    //string user_rating;\n    //address user_addr;\n    uint seller_id = 3;\n    // store aggr in variable\n    mapping(uint => bool) public isTokenUsed;\n    // 5 values instead\n    struct Tokens {\n        uint [] token_val;\n        string [] scores;\n        uint [] camps;\n        uint [] user_id;\n        mapping(uint => bool) used;\n        uint count;\n    }\n    \n    event ScoreAdded(uint sellerId, uint token, uint user_id);\n    \n    constructor() {\n        //count = 0;\n        //for (uint i=0; i<12; i++) {\n        //    addData(11, 1234, true, \"1\", 1);\n        //}\n        \n        //WebInterface w;\n        //w = new WebInterface();\n        //w.adder(11, 101, 1001, 1);\n        //w.adder(11, 102, 1002, 1);\n        //w.adder(11, 103, 1003, 0);\n        //w.adder(11, 104, 1004, 1);\n        //w.adder(11, 105, 1005, 1);\n        //setOracleAddress(0x1aFA492984C229614C9C33907C8024e084c7372E);\n        //adder(11, 104, 1004, 1);\n        \n    }\n    //local variable for user_addr and \n    \n    //Tokens [] tokensArr;\n    uint [] tokensArr;\n    //mappin of seller addrs to seller_ids\n    //mapping of seller ids to the arrays\n    //with the arrays we can loop to find the info\n    \n    mapping(uint => Tokens) seller_tokens;\n    \n    function setOracleAddress(address _oracle_address) public {\n        oracle_address = _oracle_address;\n        oracleContract = OracleInterface(_oracle_address);\n    }\n    \n    function aggr(uint _seller_id) public {\n        \n        uint[] memory user_id = seller_tokens[_seller_id].user_id;\n        string[] memory scores = seller_tokens[_seller_id].scores;\n        oracleContract.requestValue(_seller_id, user_id, scores);\n\n    }\n\n    //emit event for aggregation to be parsed to oracle\n\n    function getSellerId() public view returns (uint) {\n        return seller_id;\n    }\n    \n//    function encrypt(uint _seller_id, uint _score) public returns (string memory){\n//        oracleContract.requestScore(_seller_id, _score);\n\n    function adder(uint _seller_id, uint _token_val, uint _user_id, uint _val) public{\n        //encrypt function\n        oracleContract.requestScore(_seller_id, _token_val, _user_id, _val);\n    }\n    \n    function add(uint _seller_id, uint _token_val, uint _user_id, string memory _enc_val) public {\n    \n        seller_tokens[_seller_id].token_val.push(_token_val); //token array to be used for seller id and tokens\n        seller_tokens[_seller_id].used[_token_val]= true;\n        seller_tokens[_seller_id].scores.push(_enc_val) ;\n        seller_tokens[_seller_id].user_id.push(_user_id);\n        seller_tokens[_seller_id].count++;\n        tokensArr.push(_seller_id);\n        emit ScoreAdded(_seller_id, _token_val, _user_id);\n        if (seller_tokens[_seller_id].count == 5){\n            aggr(_seller_id);\n        }\n}\n\n    function getTokenArr() view public returns (uint[] memory) {\n        return tokensArr;\n    }\n\n    function getData(uint _seller_id) view public returns (uint[] memory, uint[] memory, string[] memory){\n        return(seller_tokens[_seller_id].token_val, seller_tokens[_seller_id].user_id, seller_tokens[_seller_id].scores);\n    }\n\n    function ASeller(uint _seller_id) public {\n        string [] memory _scores;\n        uint [] memory _camps;\n        uint [] memory _user_id;\n        uint [] memory _tok;\n        Tokens storage t = seller_tokens[_seller_id];\n        t.token_val = _tok;\n        t.scores = _scores;\n        t.camps = _camps;\n        t.user_id = _user_id;\n        t.used[_seller_id] = false;\n        t.count = 0;\n}\n    \n    function isUsed(uint _seller_id, uint _token_val) public view returns  (bool){\n    return seller_tokens[_seller_id].used[_token_val];\n    }\n}",
  "sourcePath": "/home/torch/Desktop/Work/MetaGov/Reputalble/REPUTABLE/contracts/DataService.sol",
  "compiler": {
    "name": "solc",
    "version": "0.8.0+commit.c7dfd78e.Emscripten.clang"
  },
  "schemaVersion": "3.4.14",
  "updatedAt": "2023-07-05T13:06:56.171Z",
  "networkType": "ethereum",
  "devdoc": {
    "kind": "dev",
    "methods": {},
    "version": 1
  },
  "userdoc": {
    "kind": "user",
    "methods": {},
    "version": 1
  }
}